:100000006BC0000087C0000085C0000083C00000F6
:1000100081C000007FC000007DC000007BC00000E8
:1000200079C0000077C0000075C0000073C00000F8
:1000300071C000006FC000006DC000006BC0000008
:1000400069C0000067C0000065C0000063C0000018
:1000500061C000005FC000005DC000005BC0000028
:1000600059C0000057C0000055C0000053C0000038
:1000700051C000004FC000004DC000004BC0000048
:1000800049C0000047C0000045C00000084AD73BF7
:100090003BCE016E84BCBFFDC12F3D6C74319ABD57
:1000A00056833DDA3D00C77F11BED9E4BB4C3E917B
:1000B0006BAAAABE000000803F05A84CCDB2D44E6A
:1000C000B93836A9020C50B9918688083CA6AAAA6C
:1000D0002ABE000000803F0011241FBECFEFD0E1F8
:1000E000DEBFCDBF11E0A0E0B1E0EAE8F2E100E060
:1000F0000BBF02C007900D92AC33B107D9F721E0D6
:10010000ACE3B1E001C01D92A839B207E1F7A3D377
:100110000C94430975CFE0E0F1E210828093002057
:1001200084E0808300000000108285E88A95F1F762
:1001300000000895E0E0F1E291E0908380930020D8
:1001400085E0808300000000908385E88A95F1F7C0
:100150000000089581E0DFCF0895109200218FE91B
:100160009FE00197F1F700C0000088E3D4DF8CE046
:10017000D2DF81E0D0DF8FE99FE00197F1F700C087
:1001800000000895CF93DF93EB0190E895BF24E43E
:1001900020936D0090936C00BEDF8881882349F026
:1001A000219690EE980F903608F4C4DF8991811162
:1001B000F8CFDF91CF91089590E895BF24E4209384
:1001C0006D0090936C0080958093002308952F928A
:1001D0003F924F925F926F927F928F929F92AF92D7
:1001E000BF92CF92DF92EF92FF920F931F93CF9324
:1001F000DF9300D000D0CDB7DEB71C01FC01C08476
:10020000D184E284F3840CE811E0F801C086D18641
:10021000E286F386FC0184819581A681B781BC01C9
:10022000CD01905827ED33EB4DE55FE346D74B0109
:100230005C0120E030E040E05FE3F101608171812A
:10024000828193813AD79B01AC01C501B401D7D417
:100250002B013C01F801648375838683978320E03A
:1002600030E040E05FE3F101648175818681978130
:1002700024D74B015C0127ED33EB4DE55FE3F10142
:10028000608171818281938118D79B01AC01C50186
:10029000B401B5D4F80160837183828393832BED1D
:1002A0003FE049E450E409D74B015C0100E611E06E
:1002B000F80160837183828393832BED3FE049E4EF
:1002C00050E4C301B201F9D62B013C01F80164836B
:1002D00075838683978323E333E343E450E4C701C4
:1002E000B601EBD622E630E148E75FE3E6D66B01E4
:1002F0007C01F801608771878287938720E030E076
:1003000040E05FE3C301B201D8D669837A838B836F
:100310009C832AE534E64BEB5DE3C701B601CDD6FD
:100320006B017C010CE311E020ED33EB4DE55FE365
:10033000C501B401C2D629813A814B815C815FD469
:10034000A70196015DD42FE832EC45EF5CE3EBD4D6
:10035000F8016083718382839383A7019601C301AF
:10036000B2014ED42FE832EC45EF5CE3DCD4F80167
:10037000648375838683978320ED33EB4DE55FEBD4
:10038000C501B4019AD629813A814B815C8137D469
:100390009B01AC01C701B60133D42FE832EC45EF25
:1003A0005CE3C1D4F8016087718782879387C801B5
:1003B000E2D30F900F900F900F90DF91CF911F918C
:1003C0000F91FF90EF90DF90CF90BF90AF909F90F4
:1003D0008F907F906F905F904F903F902F900895F7
:1003E0000F931F93ECE7F1E01082118212821382C7
:1003F00064837583868397832087318742875387F9
:10040000CF01E5DE101611067CF480E090E02FEFBE
:1004100030E742E0215030404040E1F700C00000AA
:1004200001968017910799F71F910F9108952F92C8
:100430003F924F925F926F927F928F929F92AF9274
:10044000BF92CF92DF92EF92FF920F931F93CF93C1
:10045000DF93CDB7DEB72A970FB6F894DEBF0FBE95
:10046000CDBF0F2EF0E0EF2EF1E0FF2EF02D0CE6C9
:1004700011E0D80114962D913D914D915C91179703
:10048000F7016481758186819781B9D34B015C0145
:10049000D8012D913D914D915C91F7016081718161
:1004A00082819381ACD36B017C019B01AC01C501BE
:1004B000B40139D409D42B013C0120E030E0A9017A
:1004C000C701B60129D488234CF04092780150929C
:1004D000790160927A0170927B0127C020E030E0C0
:1004E000A901C301B201DED5181684F42BED3FE05B
:1004F00049E450E4C301B20182D360937801709360
:10050000790180937A0190937B010FC02BED3FE03E
:1005100049E450E4C301B20173D36093780170934E
:10052000790180937A0190937B01A7019601C7011D
:10053000B601C3D56B017C01A5019401C501B401CD
:10054000BCD59B01AC01C701B6015AD343D6609319
:100550005C0170935D0180935E0190935F0120E0E8
:1005600030E040E05FE36091780170917901809123
:100570007A0190917B01A1D59B01AC0104E110E0CF
:1005800060E070E0CB012CDF2AE939E949E15EE364
:1005900060915C0170915D0180915E0190915F01BD
:1005A0002ED320E030E040E251E487D52DEC3CEC46
:1005B0004CEC5DE3B8D3E4D51ED48B0120E030E0F1
:1005C000A9016DEC7CEC8CEC9DE30ADF80E091E00E
:1005D0009A8789870F2EF8E12F2EF1E03F2EF02D1C
:1005E000A985BA8514962D913D914D915C911797EF
:1005F0001C966D917D918D919C911F9700D369837D
:100600007A838B839C83E985FA8540845184628454
:100610007384C080D180E280F380A7019601C3017A
:10062000B201EDD24B015C019B01AC0169817A8181
:100630008B819C8178D348D36D837E838F83988709
:10064000A7019601C301B20167D388236CF08D81A5
:100650009E81AF81B8858093480190934901A09312
:100660004A01B0934B012DC020E030E0A9016D811B
:100670007E818F81988516D5181694F42BED3FE076
:1006800049E450E46D817E818F819885B8D2609372
:1006900048017093490180934A0190934B0111C026
:1006A0002BED3FE049E450E46D817E818F81988598
:1006B000A7D2609348017093490180934A019093B7
:1006C0004B01209178013091790140917A0150914C
:1006D0007B01609148017091490180914A0190919C
:1006E0004B018DD22B013C016093880170938901ED
:1006F00080938A0190938B01A5019401C501B401F7
:10070000DCD44B015C0129813A814B815C81CA01B7
:10071000B901D3D49B01AC01C501B40171D25AD542
:100720009BD360935C0170935D0180935E01909315
:100730005F01C301B201F4D26B017C01C301B201BC
:100740003FD54B015C01A701960160E070E080E8B5
:100750009FE355D22AE939E949E15EE3AED4A50128
:100760009401E1D29B01AC016DEC7CEC8CEC9DE33F
:10077000DAD26B017C016093580170935901809328
:100780005A0190935B0120E030E040E251E4C30164
:10079000B20193D4A7019601C6D2F2D42CD38B0117
:1007A000A70196016DEC7CEC8CEC9DE319DE2AE947
:1007B00039E949E95EE360915C0170915D018091E6
:1007C0005E0190915F011BD220E030E040E251E4F5
:1007D00074D42DEC3CEC4CEC5DE3A5D2D1D40BD31E
:1007E0008B0120E030E0A9016DEC7CEC8CEC9DE30A
:1007F000F7DD8091480190914901A0914A01B091A3
:100800004B018093780190937901A0937A01B09382
:100810007B01A985BA851896BA87A987A215B30561
:1008200009F0DECE2A960FB6F894DEBF0FBECDBF1C
:10083000DF91CF911F910F91FF90EF90DF90CF90BC
:10084000BF90AF909F908F907F906F905F904F90F0
:100850003F902F900895ECE6F1E010821182128211
:1008600013821482158216821782108611861286D0
:10087000138616D014D171DC6DDC68E271E080E87B
:1008800081DC80E499DCD3DD80E0B7D02FEF8DE30D
:1008900099E4215080409040E1F700C00000F3CF80
:1008A00080E885BF94E490936D0080936C00089578
:1008B000813039F018F0823039F0089560930041AA
:1008C0000895609300430895609300450895813032
:1008D00039F018F0823039F009C080910040089555
:1008E00080910042089580910044089580E0089529
:1008F000CF93C82F8C2FEBDF80FDFCCFCF910895D5
:10090000CF93DF93C82FD62FF3DFC13039F018F023
:10091000C23039F008C0D093004005C0D0930042E7
:1009200002C0D0930044DF91CF9108951F93CF93DD
:10093000DF93C82FD62F172FDBDF612F8C2FB8DF67
:100940006D2F8C2FB5DFDF91CF911F910895CF923E
:10095000DF92EF92FF920F931F93CF93C82F6B01FB
:100960007A0189016EE1CCDF6EE070E08C2FDEDF72
:10097000B6018C2FDBDFB7018C2FD8DFB8018C2FAD
:10098000D5DF64E08C2FBCDFCF911F910F91FF90DA
:10099000EF90DF90CF900895CF93C82F98DF8F7B93
:1009A000843839F46DE18C2FABDF60E070E08C2F80
:1009B000BDDF8C2F8CDFCF910895CF93C82F662396
:1009C00019F0613041F00DC06FE19ADF60E078E12D
:1009D0008C2FACDF06C06FE193DF60E078E08C2FF6
:1009E000A5DFCF91089561E080E08ADF61E081E0DA
:1009F00087DF61E082E084CF0895CF93813081F07A
:100A000018F08230C9F023C0C0E06FE18C2F78DF8E
:100A100060E072E08C2F8ADFCF5FC330B1F717C080
:100A2000C0E06FE18C2F6CDF60E071E08C2F7EDF27
:100A3000CF5FC330B1F70BC0C0E06FE18C2F60DF38
:100A400060E074E08C2F72DFCF5FC330B1F7CBDF93
:100A5000CF910895CF92DF92EF92FF92CF93C82F5C
:100A6000CB01BA0120E630E34BE251E426D3C8D1F2
:100A70006B017C016FE18C2F43DF60E270E08C2F13
:100A800055DFB701882799278C2F50DFB6018C2FAF
:100A90004DDFCF91FF90EF90DF90CF900895CF93EF
:100AA000DF93C0E0DAE488EF8883169A1E9A2FEF6E
:100AB00084E39CE0215080409040E1F700C00000BA
:100AC0001E9880E069DF81E067DF82E065DF24EF68
:100AD00031E042E050E060ED77E080E038DF24EF85
:100AE00031E042E050E060ED77E081E030DF24EF7C
:100AF00031E042E050E060ED77E082E028DF40E066
:100B000050E068EC72E480E0A5DF40E050E068EC83
:100B100072E481E09FDF40E050E068EC72E482E044
:100B200099DF87E08883DF91CF910895CF92DF929C
:100B3000EF92FF92CF93C82FCB01BA0127EF3EEF80
:100B400042E054E4BAD25CD16B017C016FE18C2F9E
:100B5000D7DE68E070E08C2FE9DEB701882799279F
:100B60008C2FE4DEB6018C2FE1DECF91FF90EF9069
:100B7000DF90CF9008958F929F92AF92BF92CF92C5
:100B8000DF92EF92FF920F931F93CF938C01C0E0FF
:100B9000F801C190D190E190F1908F012AE936EBF4
:100BA0004BE450E4C701B60188D24B015C0120E060
:100BB00030E0A901C701B601AFD088234CF4B501DC
:100BC000A40170588C2FB2DF61E08C2FF6DE07C0D5
:100BD000B501A4018C2FAADF60E08C2FEEDECF5F81
:100BE000C330B1F600DFCF911F910F91FF90EF90CE
:100BF000DF90CF90BF90AF909F908F900895505806
:100C0000BB27AA270ED0ECC1B5D130F0BAD120F065
:100C100031F49F3F11F41EF485C10EF4E095E7FB1B
:100C200052C1E92FFFD180F3BA1762077307840717
:100C3000950718F071F49EF52EC20EF4E0950B2E78
:100C4000BA2FA02D0B01B90190010C01CA01A0011E
:100C50001124FF27591B99F0593F50F4503E68F179
:100C60001A16F040A22F232F342F4427585FF3CFBA
:100C7000469537952795A795F0405395C9F77EF48B
:100C80001F16BA0B620B730B840BBAF09150A1F0D4
:100C9000FF0FBB1F661F771F881FC2F70EC0BA0F5A
:100CA000621F731F841F48F4879577956795B795E2
:100CB000F7959E3F08F0B3CF9395880F08F09927DA
:100CC000EE0F979587950895DF93DD27B92FBF77AE
:100CD00040E85FE31616170648075B0710F4D92FA4
:100CE000E5D19F938F937F936F93B2D2ECE8F0E0BE
:100CF0001CD176D12F913F914F915F91EAD1DD23A5
:100D000049F09058A2EA2AED3FE049EC5FE3D07841
:100D10005D2787DFDF9164C1B2D008F481E00895D8
:100D200038D1E3956EC10CD05BC12BD140F022D1FC
:100D300030F021F45F3F19F0C6C05111ADC1F2C0CF
:100D400071D198F39923C9F35523B1F3951B550B32
:100D5000BB27AA2762177307840738F09F5F5F4F8E
:100D6000220F331F441FAA1FA9F333D00E2E3AF0CF
:100D7000E0E830D091505040E695001CCAF729D0E9
:100D8000FE2F27D0660F771F881FBB1F2617370738
:100D90004807AB07B0E809F0BB0B802DBF01FF2768
:100DA00093585F4F2AF09E3F510568F08CC074C184
:100DB0005F3FECF3983EDCF3869577956795B795A2
:100DC000F7959F5FC9F7880F911D9695879597F9BD
:100DD0000895E1E0660F771F881FBB1F6217730736
:100DE0008407BA0720F0621B730B840BBA0BEE1F4B
:100DF00088F7E095089504D06894B1114DC1089525
:100E000019D188F09F5790F0B92F9927B751A0F0CA
:100E1000D1F0660F771F881F991F1AF0BA95C9F78E
:100E200012C0B13081F037D1B1E0089534C1672FDD
:100E3000782F8827B85F39F0B93FCCF3869577953E
:100E40006795B395D9F73EF4909580957095619527
:100E50007F4F8F4F9F4F089507D180F09F3740F409
:100E600091110EF019C160E070E080E89FEB0895E9
:100E700026F41B16611D711D811D2BC045C0990FE5
:100E80000008550FAA0BE0E8FEEF16161706E80754
:100E9000F907C0F012161306E407F50798F0621B75
:100EA000730B840B950B39F40A2661F0232B242B4A
:100EB000252B21F408950A2609F4A140A6958FEF69
:100EC000811D811D089597F99F6780E870E060E0BB
:100ED0000895882371F4772321F09850872B762F7B
:100EE00007C0662311F499270DC09051862B70E03E
:100EF00060E02AF09A95660F771F881FDAF7880F4F
:100F00009695879597F908959F3F31F0915020F479
:100F1000879577956795B795880F911D96958795D5
:100F200097F908959FEF80EC0895DF93CF931F9377
:100F30000F93FF92EF92DF927B018C01689405C0C2
:100F4000DA2EEF01C6D0FE01E894A59125913591E6
:100F500045915591AEF3EF0164DEFE019701A801C2
:100F6000DA9479F7DF90EF90FF900F911F91CF9176
:100F7000DF91089500240A9416161706180609062C
:100F8000089500240A9412161306140605060895FF
:100F9000C9CF50D0E8F3E894E0E0BB279F57F0F0CA
:100FA0002AED3FE049EC06C0EE0FBB0F661F771F2E
:100FB000881F28F0B23A62077307840728F0B25AF4
:100FC000620B730B840BE3959A9572F7803830F4BB
:100FD0009A95BB0F661F771F881FD2F7904896CF50
:100FE000092E0394000C11F4882352F0BB0F40F437
:100FF000BF2B11F460FF04C06F5F7F4F8F4F9F4F77
:101000000895EF93E0FF06C0A2EA2AED3FE049EC25
:101010005FEB07DEE5DF0F90039401FC9058E9EBEE
:10102000F0E020C157FD9058440F551F59F05F3F25
:1010300071F04795880F97FB991F61F09F3F79F0FA
:1010400087950895121613061406551FF2CF46957C
:10105000F1DF08C0161617061806991FF1CF8695FE
:101060007105610508940895E5DFA0F0BEE7B917A2
:1010700088F4BB279F3860F41616B11D672F782FB0
:101080008827985FF7CF869577956795B11D9395DB
:101090009639C8F30895E894BB2766277727CB01D4
:1010A00097F90895ECDE08F48FEF08959B01AC01E9
:1010B00060E070E080E89FE336CE0BD091CF5ADF3E
:1010C00028F05FDF18F0952309F0FDCE2BCF112417
:1010D000E3CFA8DFA0F3959FD1F3950F50E0551F04
:1010E000629FF001729FBB27F00DB11D639FAA277D
:1010F000F00DB11DAA1F649F6627B00DA11D661FCC
:10110000829F2227B00DA11D621F739FB00DA11DEC
:10111000621F839FA00D611D221F749F3327A00DA6
:10112000611D231F849F600D211D822F762F6A2F42
:1011300011249F5750408AF0E1F088234AF0EE0FC7
:10114000FF1FBB1F661F771F881F91505040A9F7D4
:101150009E3F510570F0B7CE9FCF5F3FECF3983EB6
:10116000DCF3869577956795B795F795E7959F5F3B
:10117000C1F7FE2B880F911D9695879597F90895D5
:1011800059DFE0F09E37D8F09639B8F49E3848F42D
:10119000672F782F8827985FF9CF86957795679581
:1011A00093959539D0F3B62FB1706B0F711D811DDA
:1011B00020F487957795679593958BCEA5CE6CCFC8
:1011C0009F93E7DE0F9007FCEE5F1BCF11F40EF448
:1011D000A9CE9ACE2FDFD0F39923D9F3CEF39F5720
:1011E000550B87FF38D00024A0E640EA90018058D4
:1011F0005695979528F4805C660F771F881F20F01E
:1012000026173707480730F4621B730B840B20291D
:1012100031294A2BA69517940794202531254A2772
:1012200058F7660F771F881F20F0261737074807E3
:1012300030F4620B730B840B200D311D411DA09502
:1012400081F7B901842F9158880F96958795089555
:101250009B01AC0132CF91505040660F771F881F21
:10126000D2F708959F938F937F936F93FF93EF939C
:101270009B01AC0122DFEF91FF9157DE2F913F914F
:0A1280004F915F911ACFF894FFCF51
:10128A009A99193F9A99193F9A99993F9A99193FA8
:10129A009A99993F6666663F0000C03F0000C03FCA
:1012AA000000C03F9A99993F4D6F746F7220546540
:0C12BA0073742050726F6772616D000049
:00000001FF
