:100000005CC0000078C0000076C0000074C0000032
:1000100072C0000070C000006EC000006CC0000024
:100020006AC0000068C0000066C0000064C0000034
:1000300062C0000060C000005EC000005CC0000044
:100040000C94150F0C94E00E56C0000054C0000034
:1000500052C0000050C000004EC000004CC0000064
:100060004AC0000048C0000046C0000044C0000074
:1000700042C0000040C000000C94EE0D3CC00000E7
:100080003AC0000038C0000036C0000043104810DD
:100090004C1053105F1065106A10721005A84CCDFB
:1000A000B2D44EB93836A9020C50B9918688083CB2
:1000B000A6AAAA2ABE000000803F11241FBECFEFCF
:1000C000D0E1DEBFCDBF11E0A0E0B1E0E8EDF8E3A4
:1000D00000E00BBF02C007900D92AE30B107D9F718
:1000E0002BE0AEE0B1E001C01D92A734B207E1F70A
:1000F0006ED30C946A1C84CF8CE080938A008EE1CE
:1001000090E090938700809386001092890010926F
:10011000880008952F923F924F925F926F927F9244
:100120008F929F92AF92BF92CF92DF92EF92FF9207
:100130000F931F93CF93DF9300D000D0CDB7DEB7DE
:100140001C01FC01C084D184E284F3840CE511E03D
:10015000F801C086D186E286F386FC018481958110
:10016000A681B781BC01CD01905827ED33EB4DE559
:100170005FE30E94321B4B015C0120E030E040E075
:100180005FE3F10160817181828193810E94321B62
:100190009B01AC01C501B4010E94EB182B013C018D
:1001A000F801648375838683978320E030E040E024
:1001B0005FE3F10164817581868197810E94321B22
:1001C0004B015C0127ED33EB4DE55FE3F10160810D
:1001D0007181828193810E94321B9B01AC01C50118
:1001E000B4010E94EB18F8016083718382839383CA
:1001F0002BED3FE049E450E40E94321B2FEE3DEB33
:1002000047E75FE30E94321B4B015C0104E411E00D
:10021000F80160837183828393832BED3FE049E48F
:1002200050E4C301B2010E94321B2FEE3DEB47E7C1
:100230005FE30E94321B2B013C01F801648375834C
:100240008683978323E333E343E450E4C701B60195
:100250000E94321B22E630E148E75FE30E94321B36
:100260006B017C01F801608771878287938720E0AA
:1002700030E040E05FE3C301B2010E94321B6983BA
:100280007A838B839C832AE534E64BEB5DE3C701DD
:10029000B6010E94321B6B017C010CE211E027EDDC
:1002A00033EB4DE55FE3C501B4010E94321B2981A8
:1002B0003A814B815C810E94EB18A70196010E9454
:1002C000EC182FE832EC45EF5CE30E946A19F80164
:1002D0006083718382839383A7019601C301B20176
:1002E0000E94EC182FE832EC45EF5CE30E946A199B
:1002F000F801648375838683978327ED33EB4DE59F
:100300005FEBC501B4010E94321B29813A814B8108
:100310005C810E94EB189B01AC01C701B6010E94F1
:10032000EC182FE832EC45EF5CE30E946A19F80103
:100330006087718782879387C8015CD50F900F9083
:100340000F900F90DF91CF911F910F91FF90EF9041
:10035000DF90CF90BF90AF909F908F907F906F90E5
:100360005F904F903F902F9008952F923F924F9221
:100370005F926F927F928F929F92AF92BF92CF9235
:10038000DF92EF92FF920F931F93CF93DF9300D0F2
:1003900000D0CDB7DEB71C01C0901308D090140870
:1003A000E0901508F0901608C701B6010E94671981
:1003B0004B015C01C701B6010E94B51B6B017C01BA
:1003C000F101448055806680778008E311E0208148
:1003D000318142815381C501B4010E94321B69837E
:1003E0007A838B839C83A3019201C701B6010E948B
:1003F000321B9B01AC0169817A818B819C810E94B7
:10040000EC18F8016083718382839383C701B6017E
:100410009058F10120813181428153810E94321B29
:100420006B017C01A3019201C501B4010E94321B42
:100430009B01AC01C701B6010E94EC18F80164836E
:10044000758386839783F10180859185A285B38525
:10045000F80180879187A287B387C8015BDE0F9080
:100460000F900F900F90DF91CF911F910F91FF9000
:10047000EF90DF90CF90BF90AF909F908F907F9044
:100480006F905F904F903F902F900895E0E5F1E0DE
:10049000108211821282138264837583868397830C
:1004A0002087318742875387CF0134CE08950F9339
:1004B0001F93E0E5F1E089019A0130580083118330
:1004C00022833383648375838683978310861186A2
:1004D00012861386CF0149DF1F910F910895E0E046
:1004E000F1E210828093002084E08083000000000D
:1004F000108285E88A95F1F7000008951092002196
:100500008FE99FE00197F1F700C0000088E3E7DF83
:100510008CE0E5DF81E0E3DF8FE99FE00197F1F711
:1005200000C00000089590E895BF24E420936D007A
:1005300090936C0080958093002308958FB18E3F37
:10054000A1F4E0911501F0E0EA5CFD4F80818FB9E4
:10055000809115018F5F809315018091150187307F
:1005600009F08DC0109215010895809103018F3F0D
:1005700069F48FB18093030180911001813009F0FB
:100580007EC08093030110921001089590910201A2
:10059000923031F48FB180930201109214010895CA
:1005A000813029F008F46BC0913009F052C02091DD
:1005B0001801211164C020910F0121110DC02FB12C
:1005C000E0910E01F0E0EE0FFF1FE259FE4F208395
:1005D00021E020930F010FC020910E013FB1E22FC7
:1005E000F0E0EE0FFF1FE259FE4F318310920F0132
:1005F0002F5F20930E0140910E01242F30E02150F7
:100600003109F901EE0FFF1FE259FE4F50815F3FA4
:10061000B1F5220F331FF901E259FE4F21812F3F1F
:1006200071F5823038F0913029F4E6E3F2E081E0B0
:10063000858386831092120181E0809318011092C5
:10064000160142504093110110920E0110921501B3
:100650000895911114C0809114019FB1E82FF0E02A
:10066000E050FF4F90838F5F80931401823039F404
:1006700081E08093180110921401109215010895E1
:10068000EF92FF920F931F93CF93DF930E94B30FCC
:1006900001E512E0F80160817181828193810E94FD
:1006A000D719C6E3D2E06883F80164817581868139
:1006B00097810E94D71969830BE018E02BED3FE08A
:1006C00049EC50E4F80160857185828593850E942C
:1006D0006A1920E030E04FE753E40E94321B0E9489
:1006E000951B0E94D7196A8320E030E048EC52E461
:1006F000F80160817181828193810E94321B0E9486
:10070000D2190F2EF9E1EF2EF12CF02DCB01B7010C
:100710000E943A1C8B8320E030E048EC52E4F80160
:1007200064817581868197810E94321B0E94D21953
:10073000CB01B7010E943A1C8C83DF91CF911F91AE
:100740000F91FF90EF900895EFE6F1E087E392E0DC
:10075000DF0111971C9210823296E817F907C1F752
:100760000895CF93DF93C8DCD6D1C8DED5D280E020
:100770000E94C60E8EE992E00E94DB0EE5DF80E16A
:10078000D2DE0E94DA0D78940E94540EC1E5D2E0C8
:1007900040E050E060E87FE3488359836A837B83CD
:1007A000EBE0F8E080E090E0A0E8BEE38083918396
:1007B000A283B3834C835D836E837F83848395831D
:1007C000A683B7830E940B0FDF91CF910895CF933B
:1007D000DF93CDB7DEB762970FB6F894DEBF0FBEDA
:1007E000CDBFBFDF8AE0E4E0F1E0DE0111960190C9
:1007F0000D928A95E1F78E010F5F1F4FCE0106968D
:10080000AFE6B1E09C01F80161918F01AD0141506B
:100810005109FA016083FC014191CF014C9312967A
:100820000217130781F781E08093180194E69093F3
:100830001101E1E5F2E040E050E060E87FE3408351
:100840005183628373834483558366837783809364
:10085000030182E080930201109217011F86188A1B
:10086000198A1A8A1B861C861D861E8699249394D3
:100870000F2EFBE0CF2EF8E0DF2EF02D0F2EF0E054
:10088000EF2EF1E0FF2EF02D0F2EF6E3AF2EF2E06B
:10089000BF2EF02D6894882481F877247A940FE392
:1008A00012E0809118018823E1F3809122018136C2
:1008B000C1F780910301813009F073C080E133DE1C
:1008C000F5011582168280912701813009F03FC021
:1008D00090911601809111019817B8F50E94540E5D
:1008E0000E945D0E8FE19EE40197F1F700C00000C9
:1008F000F80180819181892B51F082819381892B2C
:1009000031F084819581892B11F080E40CDEF801AF
:1009100080819181C29760F082819381C29740F07B
:1009200084819581C29720F080911701813049F42C
:10093000882D9ED188E691E017D6809117010E94FC
:10094000321380912701813011F410922701809198
:100950001201811105C00E94D11490921201D7C0DA
:100960000E9478178130910591F4109217010E942E
:100970000210EADE80E4D7DD1092180180911501A3
:100980008111FCCF8092020170920301C0C00297D6
:1009900009F0BDC01092170180E4C5DD109212016C
:1009A000B6C0823008F4B3C080910201813039F5BD
:1009B00080911201811106C080E2B5DD9092120192
:1009C0000E947D1080E1AFDD0E94AA11019709F01D
:1009D0009EC01092170180E04BD120E030E0A901C9
:1009E000CA01B90153DD0E940210AEDE80E49BDD36
:1009F00010921801809202017092030188C09092B7
:100A0000100180911301813009F04FC01092130141
:100A1000F7018081811118C08181811115C0109268
:100A2000170126D120E030E0A901CA01B9012EDD6D
:100A30000E94021089DE80E476DD10921801809217
:100A400002017092030133C080E16DDDF701608126
:100A500070E080E090E00E94031A20E030E048EC73
:100A600052E40E946A196B877C878D879E87F70105
:100A7000618170E080E090E00E94031A20E030E0A5
:100A800048EC52E40E946A196F87788B898B9A8BA5
:100A90009B01AC016B857C858D859E8508DD80E1A1
:100AA00042DDF5011582168202C0909213012DECF1
:100AB0003CEC4CEC5DE36B857C858D859E850E94CE
:100AC000321B9B01AC01F6016081718182819381AF
:100AD0000E94EC18F60160837183828393832DEC6E
:100AE0003CEC4CEC5DE36F85788989899A890E949A
:100AF000321B9B01AC01F60164817581868197816F
:100B00000E94EC18F6016483758386839783B8DDB1
:100B10000E94110FC6CE80E885BF94E490936D00CB
:100B200080936C000895813039F018F0823039F0EC
:100B30000895609300410895609300430895609381
:100B400000450895813039F018F0823039F009C03D
:100B50008091004008958091004208958091004462
:100B6000089580E00895CF93C82F8C2FEBDF80FD90
:100B7000FCCFCF910895CF93DF93C82FD62FF3DF0B
:100B8000C13039F018F0C23039F008C0D0930040BD
:100B900005C0D093004202C0D0930044DF91CF91B2
:100BA00008951F93CF93DF93C82FD62F172FDBDF26
:100BB000612F8C2FB8DF6D2F8C2FB5DFDF91CF9198
:100BC0001F910895CF92DF92EF92FF920F931F93A0
:100BD000CF93C82F6B017A0189016EE1CCDF6EE003
:100BE00070E08C2FDEDFB6018C2FDBDFB7018C2F9E
:100BF000D8DFB8018C2FD5DF64E08C2FBCDFCF911C
:100C00001F910F91FF90EF90DF90CF900895CF93B9
:100C1000C82F98DF8F7B843839F46DE18C2FABDFE0
:100C200060E070E08C2FBDDF8C2F8CDFCF910895BA
:100C3000CF93C82F662319F0613041F00DC06FE1EA
:100C40009ADF60E078E18C2FACDF06C06FE193DFC4
:100C500060E078E08C2FA5DFCF91089561E080E01F
:100C60008ADF61E081E087DF61E082E084CF089580
:100C7000CF93813081F018F08230C9F023C0C0E0FA
:100C80006FE18C2F78DF60E072E08C2F8ADFCF5F1E
:100C9000C330B1F717C0C0E06FE18C2F6CDF60E0AC
:100CA00071E08C2F7EDFCF5FC330B1F70BC0C0E0A7
:100CB0006FE18C2F60DF60E074E08C2F72DFCF5F1C
:100CC000C330B1F7CBDFCF910895CF92DF92EF928F
:100CD000FF92CF93C82FCB01BA0120E630E34BE25D
:100CE00051E40E94321B0E94D7196B017C016FE115
:100CF0008C2F41DF60E270E08C2F53DFB701882733
:100D000099278C2F4EDFB6018C2F4BDFCF91FF90B0
:100D1000EF90DF90CF900895CF93DF93C0E0DAE4B7
:100D200088EF8883169A1E9A2FEF84E39CE0215067
:100D300080409040E1F700C000001E9880E067DF2F
:100D400081E065DF82E063DF24EF31E042E050E0E4
:100D500060ED77E080E036DF24EF31E042E050E004
:100D600060ED77E081E02EDF24EF31E042E050E0FB
:100D700060ED77E082E026DF40E050E068EC72E46E
:100D800080E0A3DF40E050E068EC72E481E09DDFAA
:100D900040E050E068EC72E482E097DF87E088830F
:100DA000DF91CF910895CF92DF92EF92FF92CF9390
:100DB000C82FCB01BA0127EF3EEF42E054E40E9476
:100DC000321B0E94D7196B017C016FE18C2FD3DE9F
:100DD00068E070E08C2FE5DEB701882799278C2F1B
:100DE000E0DEB6018C2FDDDECF91FF90EF90DF903B
:100DF000CF9008958F929F92AF92BF92CF92DF9241
:100E0000EF92FF920F931F93CF938C01C0E0F801F4
:100E1000C190D190E190F1908F012AE936EB4BE43B
:100E200050E4C701B6010E94321B4B015C0120E077
:100E300030E0A901C701B6010E94631988234CF470
:100E4000B501A40170588C2FAEDF61E08C2FF0DE6D
:100E500007C0B501A4018C2FA6DF60E08C2FE8DE6F
:100E6000CF5FC330A1F6FADECF911F910F91FF90B3
:100E7000EF90DF90CF90BF90AF909F908F900895AC
:100E80002F923F924F925F926F927F928F929F929A
:100E9000AF92BF92CF92DF92EF92FF921F93CF93C8
:100EA000DF93CDB7DEB72C970FB6F894DEBF0FBE39
:100EB000CDBF182F7E836D83E82EF12C8FEFE81ABB
:100EC000F80A8090510290905202A0905302B09084
:100ED0005402F701EE0FFF1FE259FE4F608170E0F0
:100EE00080E090E00E94051AA50194010E94EB1891
:100EF0000E94D2196F5F7F4F6330710590F5F70143
:100F0000EE0FFF1FE259FE4F618170E080E090E03C
:100F10000E94051A209155023091560240915702C5
:100F2000509158020E94EB180E94D2196F5F7F4FB8
:100F300063307105B0F480913F029091400280359A
:100F4000910579F08091410290914202803591059E
:100F500041F080914302909144028035910509F05F
:100F60001F5FA12FB0E0BC87AB871D01BFEF2B1A1D
:100F70003B0A8B859C850396281639060CF0C8C061
:100F8000F101EE0FFF1FE259FE4F60816F3F09F440
:100F9000C2C0F101EE0FFF1FE259FE4F11811F3F4A
:100FA00009F4BCC040905502509056026090570220
:100FB0007090580270E080E090E00E94051A9B015A
:100FC000AC01C501B4010E94EB1869837A838B835D
:100FD0009C83612F70E080E090E00E94051A9B01E5
:100FE000AC01C301B2010E94EB186B017C012981A5
:100FF0003A814B815C81CA01B9010E94321B6F8327
:10100000788789879A8729813A814B815C81CA01D7
:10101000B9010E94321B69837A838B839C83A70169
:101020009601C701B6010E94321B9B01AC01698188
:101030007A818B819C810E94EC180E94BF1B6B01FE
:101040007C0120E030E04AE754E40E9463198823E1
:1010500054F00F2EC12CD12CFAE7EF2EF4E4FF2E22
:10106000F02D212C312CEB85FC853296F887EF830F
:10107000EE0FFF1FE259FE4F60816F3F09F450C031
:10108000EF81F885EE0FFF1FE259FE4F11811F3FE0
:1010900009F446C070E080E090E00E94051A9B01D0
:1010A000AC01C501B4010E94EB184B015C01612F3A
:1010B00070E080E090E00E94051A9B01AC01C30142
:1010C000B2010E94EB1869837A838B839C83A5010C
:1010D0009401C501B4010E94321B4B015C012981BE
:1010E0003A814B815C81CA01B9010E94321B9B018C
:1010F000AC01C501B4010E94EC180E94BF1BA701FE
:1011000096010E94631988235CF42F80388408C0FC
:10111000212C312C05C0212C312C02C0212C312C4A
:10112000F101EE0FFF1FE259FE4F808190E0AD818B
:10113000BE8111969C938E93818190E013969C932F
:101140008E931297C10101972C960FB6F894DEBFCB
:101150000FBECDBFDF91CF911F91FF90EF90DF9039
:10116000CF90BF90AF909F908F907F906F905F9047
:101170004F903F902F9008952F923F924F925F9201
:101180006F927F928F929F92AF92BF92CF92DF9297
:10119000EF92FF920F931F93CF93DF9300D000D075
:1011A000CDB7DEB75C018B01FC0162817381072E34
:1011B000000C880B990B0E94051A0F2EF1E58F2E5B
:1011C000F2E09F2EF02DF401248135814681578174
:1011D0000E94EB180E94D2196B017C01F50160811D
:1011E0007181072E000C880B990B0E94051AF401DF
:1011F00020813181428153810E94EB180E94D219D3
:10120000072E000C880B990B0E94051A4B015C01FC
:101210002DEC3CEC4CE45DE30E942E1B18169CF078
:1012200022242394312C2DEC3CEC4CE45DEBC501E5
:10123000B4010E946319882314F0212C312C3194BD
:101240002194310803C022242394312CB601DD0CF3
:10125000880B990B0E94051A6B017C012DEC3CEC6C
:101260004CE45DE30E942E1B18169CF066246394E8
:10127000712C2DEC3CEC4CE45DEBC701B6010E94F7
:101280006319882314F0612C712C71946194710896
:1012900003C066246394712C8090590290905A0286
:1012A000A0905B02B0905C02C501B4010E94671976
:1012B0006B017C01B301770C880B990B0E94051A16
:1012C00069837A838B839C83C501B4010E94B51B1B
:1012D0004B015C01B101032C000C880B990B0E949F
:1012E000051AA70196010E94321B2B013C01A501A2
:1012F000940169817A818B819C810E94321B9B01C0
:10130000AC01C301B2010E94EC182B013C0166271D
:10131000772762197309072E000C880B990B0E941E
:10132000051A9B01AC01C501B4010E94321B4B019F
:101330005C0129813A814B815C81C701B6010E9421
:10134000321B9B01AC01C501B4010E94EC186B017A
:101350007C012DEC3CEC4CE45DE3C301B2010E9446
:101360002E1B181634F481E090E0F80191838083FD
:1013700013C02DEC3CEC4CE45DEBC301B2010E94C8
:101380006319882334F48FEF9FEFF80191838083F2
:1013900003C0F801118210822DEC3CEC4CE45DE3BB
:1013A000C701B6010E942E1B181634F481E090E0AC
:1013B000F8019383828313C02DEC3CEC4CE45DEB8D
:1013C000C701B6010E946319882334F48FEF9FEFA1
:1013D000F8019383828303C0F801138212820F9075
:1013E0000F900F900F90DF91CF911F910F91FF9071
:1013F000EF90DF90CF90BF90AF909F908F907F90B5
:101400006F905F904F903F902F900895FC01208146
:1014100031812130310539F482819381009741F186
:101420000197F9F428C02115310529F482819381AF
:10143000019781F423C02F3F3F4F19F5828193819B
:101440008130910509F1009711F1019619F180E0C1
:1014500090E00895828193810196F9F080E090E018
:101460000895828193810196D9F487E090E00895F0
:1014700080E090E0089581E090E0089582E090E0BF
:10148000089580E090E0089583E090E0089584E07E
:1014900090E0089585E090E0089586E090E008955A
:1014A00080E090E00895CF92DF92EF92FF920F9349
:1014B0001F93CF93DF93EC018B01C880D980EA8022
:1014C000FB802DEC3CEC4CE45DE3C701B6010E94CF
:1014D0002E1B181634F481E090E0F801918380838C
:1014E00013C02DEC3CEC4CE45DEBC701B6010E944F
:1014F0006319882334F48FEF9FEFF8019183808381
:1015000003C0F80111821082CC80DD80EE80FF8064
:101510002DEC3CEC4CE45DE3C701B6010E942E1BB0
:10152000181634F481E090E0F8019383828313C0AD
:101530002DEC3CEC4CE45DEBC701B6010E94631955
:10154000882334F48FEF9FEFF8019383828303C0E5
:10155000F80113821282DF91CF911F910F91FF90BA
:10156000EF90DF90CF9008952F923F924F925F922D
:101570006F927F928F929F92AF92BF92CF92DF92A3
:10158000EF92FF920F931F93CF93DF93CDB7DEB708
:10159000AC970FB6F894DEBF0FBECDBF9CA78BA74C
:1015A000BE01635E7F4F809116016ADC8093160155
:1015B000BE016F5F7F4FCE014D96DEDD0F2EFFE344
:1015C000EF2EF2E0FF2EF02DD70112960D911C9117
:1015D00013971496CD90DC9015972D903C90119711
:1015E00012966D917C91139780E090E00E94031A0F
:1015F00020E030E040EA52E40E946A199B01AC010D
:1016000060E070E080E89FE30E94EB180E945019B0
:101610006BA37CA38DA39EA3F7016481758180E0F9
:1016200090E00E94031A20E030E040EA52E40E9479
:101630006A199B01AC0160E070E080E89FE30E94C2
:10164000EB180E9450196FA378A789A79AA7D70112
:101650006D917C9180E090E00E94031A20E030E0E0
:1016600040EA52E40E946A199B01AC0160E070E01C
:1016700080E89FE30E94EB180E9450194B015C0127
:1016800069817A81072E000C880B990B0E94051A3C
:1016900020E030E040E05FE30E94321B2B013C0180
:1016A000B80180E090E00E94031A20E030E040EAB8
:1016B00052E40E946A199B01AC0160E070E080E88E
:1016C0009FE30E94EB189B01AC01C301B2010E9491
:1016D000EC182B013C01B60180E090E00E94031A57
:1016E00020E030E040EA52E40E946A199B01AC011C
:1016F00060E070E080E89FE30E94EB189B01AC0182
:10170000C301B2010E94EB182B013C0120E030E044
:1017100040E85FE36BA17CA18DA19EA10E94EC1823
:101720002FA138A549A55AA50E94EC180E94D219EC
:10173000072E000C880B990B0E94051A9B01AC0127
:10174000C301B2010E946A192B013C016B817C81AB
:10175000072E000C880B990B0E94051A20E030E040
:1017600040E05FE30E94321B6BA37CA38DA39EA38A
:10177000B10180E090E00E94031A20E030E040EAEE
:1017800052E40E946A199B01AC0160E070E080E8BD
:101790009FE30E94EB189B01AC016BA17CA18DA182
:1017A0009EA10E94EB186BA37CA38DA39EA320E0B7
:1017B00030E040E85FE3C501B4010E94EC180E94EC
:1017C000D219072E000C880B990B0E94051A9B0159
:1017D000AC016BA17CA18DA19EA10E946A194B0155
:1017E0005C012DEC3CEC4CE45DE3C301B2010E94D2
:1017F0002E1B181664F02DEC3CEC4CE45DEBC301A1
:10180000B2010E94631988230CF463C172C12DECEC
:101810003CEC4CE45DE3C501B4010E942E1B18169C
:10182000C4F1212C312C00E81FE32DEC3CEC4CE4FE
:101830005DEBC501B4010E94631988230CF470C1EB
:1018400063C1809116018F5F80931601BE01635EB4
:101850007F4F16DB80931601BE016F5F7F4FCE0175
:101860004D968ADC80911601815080931601ACCE92
:10187000412C512C320119C0212C312C00E81FEBD6
:101880000F2E412C512CF0E86F2EFFE37F2EF02D10
:101890000CC0212C312C00E81FE30F2E412C512CC1
:1018A000F0E86F2EFFE37F2EF02D0F2EF1E5EF2EE7
:1018B000F2E0FF2EF02DF70180849184A284B3849E
:1018C000C501B4010E9467196BA37CA38DA39EA3DD
:1018D000C501B4010E94B51B4B015C01222D332DC3
:1018E000402F512F6BA17CA18DA19EA10E94321B84
:1018F0006FA378A789A79AA7A3019201C501B40194
:101900000E94321B9B01AC016FA178A589A59AA505
:101910000E94EB186D877E878F87988B222D332D41
:10192000402F512FC501B4010E94321B4B015C01B5
:10193000A30192016BA17CA18DA19EA10E94321BEB
:101940009B01AC01C501B4010E94EC18698B7A8B34
:101950008B8B9C8BBE016B5F7F4FCE010D96A3DD01
:101960006D817E81072E000C880B990B0E94051A51
:10197000D7012D913D914D915C910E94EC180E94F0
:10198000D2194B015C01EBA5FCA5718360836F81CB
:101990007885072E000C880B990B0E94051AD70139
:1019A00014962D913D914D915C9117970E94EC18E2
:1019B0000E94D2196B017C01EBA5FCA573836283A5
:1019C0000091160110E0000F111F00591E4FD801A1
:1019D0006C9170E068197909072E000C880B990B3F
:1019E0000E94051A6D8B7E8B8F8B988FF8018181F9
:1019F00090E0BC016C197D09072E000C880B990B37
:101A00000E94051A698F7A8F8B8F9C8FBE01675F4A
:101A10007F4FCE01459647DDCE010996F7DCABA599
:101A2000BCA515969C938E9314978091160190E017
:101A30009C012F5F3F4FF901EE0FFF1FE259FE4F50
:101A40006081FC01EE0FFF1FE259FE4F40816413DD
:101A50000DC070E08D919C918617970719F4109234
:101A600017018FC081E0809317018BC0880F991FE9
:101A7000FC01E259FE4F018110E050E0220F331FBC
:101A8000F901E259FE4F218130E0201B310BABA55B
:101A9000BCA5ED91FC91E41BF50B2E9FC0012F9F7F
:101AA000900D3E9F900D112470E0641B750B0E94F9
:101AB0003A1C060F171FEBA5FCA5828193818017A6
:101AC000910719F4109217015CC081E0809317010F
:101AD00058C02DEC3CEC4CE45DE3C501B4010E9420
:101AE0002E1B18160CF4C8CE212C312C00E81FEB4D
:101AF0009CCE2DEC3CEC4CE45DE3C501B4010E94AE
:101B00002E1B18166CF11CC020E030E0A901622DDC
:101B1000732D802F912F0E946319882371F1A8CE15
:101B200020E030E0A901622D732D802F912F0E94BB
:101B30006319882309F485CE412C512C3201B5CE8E
:101B40002DEC3CEC4CE45DEBC501B4010E94631943
:101B500088230CF476CE212C312C00E010E0D4CF79
:101B6000212C312C00E010E00F2E412C512CF0E8FC
:101B70006F2EFFE37F2EF02D98CE412C512C320199
:101B800094CEAC960FB6F894DEBF0FBECDBFDF91FA
:101B9000CF911F910F91FF90EF90DF90CF90BF906A
:101BA000AF909F908F907F906F905F904F903F90FD
:101BB0002F900895109298008CE08093990088E906
:101BC00080939A0086E080939D00EFE3F2E011821B
:101BD0001082138212821582148208951F920F922E
:101BE0000FB60F9211240BB60F922F938F939F93E2
:101BF000AF93BF93EF93FF9380919B0090919C00D4
:101C0000887119F01092210141C080912101811148
:101C10000BC09C3CD9F58CEC80931A0191E0909319
:101C200021018093190132C0E82FF0E0E65EFE4FFB
:101C30009083853041F120911901920F9093190101
:101C40008F5F80932101873009F590911F0180916A
:101C50001901981315C0AAE1B1E01196EC91119702
:101C6000F0E013968C91139790E0982F88271496A4
:101C70002C91822BEE0FFF1FE35EFD4F918380833B
:101C80001092210103C086E080932101FF91EF9122
:101C9000BF91AF919F918F912F910F900BBE0F909D
:101CA0000FBE0F901F901895EFE3F2E011821082A3
:101CB00013821282158214820895EF92FF920F937D
:101CC0001F93CF93DF93CDB7DEB727970FB6F89466
:101CD000DEBF0FBECDBF8AEA898387E08B831C827B
:101CE0001D8285E58F8351E18E01085F1F4FEBE96F
:101CF000F0E06CE970E040EA3FE05A839B81898123
:101D0000890F9C81890F9D81890F9F81890F850F84
:101D10008E83CE0101967C01842F932F208125FD97
:101D200003C00197D8F702C0892B41F0D7018D91EC
:101D30007D01DB018C93E016F10671F75F5F543192
:101D4000E1F680913F0290914002892B79F08091D9
:101D5000410290914202892B59F020914302309127
:101D6000440281E0232B29F480E003C080E001C01D
:101D700080E027960FB6F894DEBF0FBECDBFDF918F
:101D8000CF911F910F91FF90EF9008957894882341
:101D900051F0813079F486EF8DB91EB8B89AB99AAE
:101DA000BA9ABB98089586EC8DB91EB8B898B998C0
:101DB000BA98BB9A089590933E0280933D0208958D
:101DC0001F920F920FB60F9211240BB60F922F9302
:101DD0003F934F935F936F937F938F939F93AF93B3
:101DE000BF93EF93FF93E0913D02F0913E0209957E
:101DF000FF91EF91BF91AF919F918F917F916F91E3
:101E00005F914F913F912F910F900BBE0F900FBE9E
:101E10000F901F90189583E083BF81E087BF12BEAB
:101E200008951092220112BE08951F920F920FB6CC
:101E30000F9211248F93809122018F5F8093220152
:101E40008F910F900FBE0F901F9018958F929F92B9
:101E5000AF92BF92CF92DF92EF92FF920F931F93B8
:101E6000CF93DF938C01EB01C880D980EA80FB809F
:101E7000FC0180809180A280B380A5019401C701FC
:101E8000B6010E942E1B1816F4F4CC80DD80EE8083
:101E9000FF80F80184809580A680B780A501940119
:101EA000C701B6010E942E1B18160CF444C0A501F0
:101EB0009401C701B6010E94631988230CF43EC047
:101EC00080E090E043C0A5019401C701B6010E94E3
:101ED0006319882304F5CC80DD80EE80FF80F80153
:101EE00084809580A680B780A5019401C701B601C2
:101EF0000E942E1B18162CF1A5019401C701B601F2
:101F00000E946319082E000C990B8827990F881FCF
:101F1000992704961BC0F801248135814681578199
:101F20006C817D818E819F810E942E1B181664F02A
:101F300086E090E00BC081E090E008C087E090E090
:101F400005C083E090E002C082E090E0DF91CF9195
:101F50001F910F91FF90EF90DF90CF90BF90AF90C7
:101F60009F908F9008950F931F93CF93DF930BE073
:101F700018E020E030E040E850E4F8016081718131
:101F8000828193810E94321B0E94951BC1E5D2E0A1
:101F9000688379838A839B8320E030E040E850E4C3
:101FA000F80164817581868197810E94321B0E94AD
:101FB000951B6C837D838E839F8360912A01709132
:101FC0002B01072E000C880B990B0E94051A2BED94
:101FD0003FE049E450E40E94321B20E030E040E85A
:101FE0005EE30E94321B29EF3FE049EC5FE30E9471
:101FF000EB18688779878A879B87DF91CF911F913C
:102000000F91089510921601109229011092250146
:1020100008950F931F93A0913F0BB091400BFD01CA
:10202000EE0FFF1FEE0FFF1FEE0FFF1FE75EF74FD4
:1020300060837183828393832483358346835783AC
:10204000FD01EE0FFF1FE35DF84F11830083CD010B
:1020500001969093400B80933F0B1F910F91089531
:10206000CF92DF92EF92FF920F931F93E091F907C7
:10207000F091FA07E830F10508F038C08A01EA5B10
:10208000FF4F0C944D1C20E030E0A901C2DF2EC0B0
:102090009B01AC01BEDF2AC09B01AC0160E070E097
:1020A000CB01B7DF23C06B017C01F7FAF094F7F89E
:1020B000F0949B01AC01C701B601ABDF17C090588B
:1020C00020E030E0A901A5DF11C090589B01AC01D0
:1020D000A0DF0CC09B01AC01505860E070E0CB0168
:1020E00098DF04C09B01AC01505893DF1F910F9102
:1020F000FF90EF90DF90CF900895BF92CF92DF9244
:10210000EF92FF920F931F93CF93DF9310921807D4
:10211000109217071092400B10923F0B109224015F
:10212000109223011092FE071092FD0709E117E0BB
:102130000F2EF5EFEF2EF7E0FF2EF02DC0901707D2
:10214000D0901807E601CC0FDD1FC259DE4FB880D2
:102150006B2D70E080E090E00E94031AF80160832C
:10216000718382839383D9816D2F70E080E090E04A
:102170000E94031AF8016483758386839783C601DE
:10218000880F991F9C0120593E4F6901F901C081B8
:102190006C2F70E080E090E00E94031AF8016087E5
:1021A000718782879387F601D1806D2D70E080E082
:1021B00090E00E94031AF8016487758786879787E5
:1021C00061E277E0C80142DE9093FA078093F90755
:1021D0002C2F30E02B193109F701318320838D2D0D
:1021E00090E08D1B910993838283121613062CF4C1
:1021F000309316072093150719C0332344F4319503
:102200002195310930931607209315070FC0181632
:1022100019062CF4909316078093150707C0919523
:102220008195910990931607809315078091150762
:10223000909116070197B1F445E050E06DEC7CEC0D
:102240008CEC9DE30DDF4AE050E06AE979E989E131
:102250009EE306DF45E050E06DEC7CEC8CEC9DE30A
:10226000FFDE5AC045E050E06DEC7CEC8CE49DE371
:10227000F7DE45E050E06DEC7CEC8CEC9DE3F0DEAD
:1022800045E050E06AE979E989E19EE3E9DE45E06D
:1022900050E06DEC7CEC8CE49EE3E2DE40911507AF
:1022A000509116074330510594F042505109CA012C
:1022B000880F991F440F551F440F551F440F551F7A
:1022C000480F591F60E070E080E89EE3C9DE45E0FA
:1022D00050E06DEC7CEC8CE49EE3C2DE45E050E027
:1022E0006AE979E989E19EE3BBDE45E050E06DEC07
:1022F0007CEC8CEC9DE3B4DE45E050E06DEC7CECD6
:102300008CE49DE3ADDE8091FD079091FE0705967C
:102310009093FE078093FD0780911707909118070F
:102320009C012F5F3F4F3093180720931707880FAA
:10233000991FFC01EE58FE4F80818F3F09F0FECEC1
:10234000DF91CF911F910F91FF90EF90DF90CF9091
:10235000BF900895EF92FF920F931F93CF93DF9357
:1023600080913D0B90913E0B892B09F064C08091C8
:1023700023019091240120913F0B3091400B821753
:10238000930739F4E6E3F2E01582168281E090E0EB
:1023900099C0FC01EE0FFF1FE35DF84F20813181F2
:1023A00030933E0B20933D0B880F991F880F991F88
:1023B000880F991FFC01E75EF74F24813581468124
:1023C000578160817181828193810E945702C091FF
:1023D0002301D09124018E01000F111F000F111F46
:1023E000000F111F075E174F20E030E048EC52E469
:1023F000F80160817181828193810E94321BD7D75D
:102400000F2EF6E3EF2EF2E0FF2EF02DF70165839D
:1024100020E030E048EC52E4F80164817581868167
:1024200097810E94321BC3D7F70166832196D09310
:102430002401C093230180913D0B90913E0B0197A5
:1024400090933E0B80933D0BC0912301D0912401CA
:102450000BE018E0CC0FDD1FCC0FDD1FCC0FDD1F14
:10246000CF5ED74F2DEC3CEC4CEC5DE3688179817D
:102470008A819B810E94321B9B01AC01F801608123
:10248000718182819381A8D6F801608371838283F0
:1024900093832DEC3CEC4CEC5DE36C817D818E8173
:1024A0009F810E94321B9B01AC01F8016481758100
:1024B0008681978191D6F80164837583868397839B
:1024C00080E090E0DF91CF911F910F91FF90EF900E
:1024D00008950F931F93A091390BB0913A0BFD0112
:1024E000EE0FFF1FEE0FFF1FEE0FFF1FE15AFD4F14
:1024F00060837183828393832483358346835783E8
:10250000FD01EE0FFF1FEE0FFF1FE158FA4F118381
:1025100000832091160130E033832283CD010196A0
:1025200090933A0B8093390B1F910F9108950F935D
:102530001F9381110AC001E010E020E030E040E884
:102540005FE3CA01B901C5DF0BC0813049F402E085
:1025500010E020E030E040E050E4CA01B901B9DF0A
:102560001F910F910895CF92DF92EF92FF92CF9338
:10257000DF93C0915D02D0915E02FE01EE0FFF1F5E
:10258000EE0FFF1FEE0FFF1FE15AFD4FC080D180FD
:10259000E280F38020E030E040E85FE3C701B6016D
:1025A00092D6811124C0FE01EE0FFF1FEE0FFF1F18
:1025B000EE0FFF1FE15AFD4F20E030E040E85FE3FF
:1025C00064817581868197817ED6811139C0CC0F57
:1025D000DD1FCC0FDD1FC158DA4F31E020E08881CC
:1025E0009981019709F030E0832F922F34C020E0C9
:1025F00030E040E050E4C701B60165D6811123C048
:10260000FE01EE0FFF1FEE0FFF1FEE0FFF1FE15A3F
:10261000FD4F20E030E040E050E464817581868128
:10262000978151D6811112C0CC0FDD1FCC0FDD1F59
:10263000C158DA4F888199818230910551F40BC0DD
:1026400080E090E008C080E090E005C080E090E08D
:1026500002C080E090E0DF91CF91FF90EF90DF909B
:10266000CF9008953F924F925F926F927F928F9298
:102670009F92AF92BF92CF92DF92EF92FF920F9311
:102680001F93CF93DF93382E81E080932601109221
:102690003A0B1092390B8FEF9FEF90935E0280936D
:1026A0005D021092460B1092450BC9E1D7E001E59F
:1026B00012E020E030E040E85EE3F80160817181E3
:1026C00082819381CFD7688379838A839B8320E03B
:1026D00030E040E85EE3F80164817581868197818E
:1026E000C1D76C837D838E839F8308E611E0F80158
:1026F00060817181072E000C880B990B86D620E033
:1027000030E040E85EE3AED7688779878A879B87A9
:10271000F80162817381072E000C880B990B75D626
:1027200020E030E040E85EE39DD76C877D878E87B0
:102730009F8761E277E0CE0189DB9C0190933C0B9F
:1027400080933B0B80912A0190912B01281B390B20
:102750002D3FFFEF3F072CF0309318082093170808
:1027600006C0285F3F4F30931808209317088091C8
:10277000170890911808853091052CF008979093D0
:10278000180880931708209117083091180812161E
:102790001306A4F48901000F111F220F331F220F0B
:1027A000331F220F331F020F131F2BED3FE049E4AD
:1027B0005FE360E070E0CB018CDE10C0332374F483
:1027C00046EF42038001439F100D11242BED3FE0A3
:1027D00049E45FEB60E070E0CB017BDEC9E1D7E06C
:1027E000288139814A815B81688579858A859B85C5
:1027F000F2D44B015C012C813D814E815F816C855F
:102800007D858E859F85E7D46B017C01A5019401B0
:10281000C501B40127D74B015C01A7019601C7018F
:10282000B60120D79B01AC01C501B401D5D4A7D70F
:102830006093FF077093000880930108909302084B
:1028400010913B0BF0903C0B10FD18C020E030E0E5
:1028500040E251E407D720E030E040E850E402D7FE
:1028600064D7A0D5709314076093130710932A01BF
:10287000F0922B0161157105C9F42BC020E030E006
:1028800040E251E4EFD62EEA3CE441E85EE322D593
:102890004CD788D5709314076093130710932A01BF
:1028A000F0922B016115710559F413C08B0120E0E2
:1028B00030E0A90160E070E080E89EE30ADE09C034
:1028C0008B0120E030E0A9016EEA7CE481E89EE320
:1028D00000DE20916C0130916D0130933C0B209310
:1028E0003B0B80912A0190912B01281B390B2D3F26
:1028F0008FEF38072CF0309318082093170806C084
:10290000285F3F4F309318082093170880911708CD
:1029100090911808853091052CF00897909318082D
:102920008093170820911708309118081216130683
:10293000A4F48901000F111F220F331F220F331F30
:10294000220F331F020F131F2BED3FE049E45FE31B
:1029500060E070E0CB01BDDD10C0332374F446EFBE
:1029600042038001439F100D11242BED3FE049E409
:102970005FEB60E070E0CB01ACDD832DD8DDDF9153
:10298000CF911F910F91FF90EF90DF90CF90BF906C
:10299000AF909F908F907F906F905F904F903F90FF
:1029A00008952F923F924F925F926F927F928F92F3
:1029B0009F92AF92BF92CF92DF92EF92FF920F93CE
:1029C0001F93CF93DF9310923A0B1092390B8FEF36
:1029D0009FEF90935E0280935D021092460B1092DF
:1029E000450B09E117E0C1E5D2E020E030E040E826
:1029F0005EE3688179818A819B8134D6F8016083A6
:102A000071838283938320E030E040E85EE36C8151
:102A10007D818E819F8126D6F801648375838683AC
:102A20009783C0911601D0E0CC0FDD1FC059DE4F57
:102A3000688170E080E090E0E8D420E030E040E899
:102A40005EE310D6F801608771878287938769817A
:102A500070E080E090E0D9D420E030E040E85EE330
:102A600001D6F801648775878687978761E277E0EA
:102A7000C801ECD990933C0B80933B0B20912A0129
:102A800030912B01821B930B8D3FFFEF9F072CF0A2
:102A9000909318088093170805C00896909318081B
:102AA0008093170880911708909118088530910538
:102AB0002CF0089790931808809317082091170816
:102AC0003091180812161306A4F48901000F111F83
:102AD000220F331F220F331F220F331F020F131F2A
:102AE0002BED3FE049E45FE360E070E0CB01F1DC17
:102AF00010C0332374F446EF42038001439F100D4E
:102B000011242BED3FE049E45FEB60E070E0CB0186
:102B1000E0DCC9E1D7E0288139814A815B816885A1
:102B200079858A859B8557D34B015C012C813D813A
:102B30004E815F816C857D858E859F854CD36B0131
:102B40007C01A5019401C501B4018CD54B015C0148
:102B5000A7019601C701B60185D59B01AC01C5014E
:102B6000B4013AD30CD66093FF07709300088093AA
:102B700001089093020820913B0B20FD1FC020E02C
:102B800030E040E05EE327D320E030E040E251E473
:102B900069D520E030E040E850E464D5C6D502D4E1
:102BA00070931407609313078B0120E030E0A901B4
:102BB00060E070E080E89EE38CDC1EC020E030E046
:102BC00040E05EE308D320E030E040E251E44AD543
:102BD0002EEA3CE441E85EE37DD3A7D5E3D37093CE
:102BE0001407609313078B0120E030E0A9016EEA1F
:102BF0007CE481E89EE36DDC80913B0B90913C0B83
:102C000090932B0180932A01C9E1D7E02C2E3D2E11
:102C100037C10F5F0093160110E0C801880F991F9C
:102C20009C0122593E4F7901F901608170E080E0FA
:102C300090E0EBD320E030E040E85EE313D568831A
:102C400079838A839B83F701618170E080E090E063
:102C5000DCD320E030E040E85EE304D56C837D8384
:102C60008E839F83000F111F00591E4FF801608152
:102C700070E080E090E0C9D320E030E040E85EE31F
:102C8000F1D4688779878A879B87F801618170E032
:102C900080E090E0BAD320E030E040E85EE3E2D4A8
:102CA0006C877D878E879F8761E277E0822D932DE9
:102CB000CDD890933C0B80933B0B20912A0130910F
:102CC0002B01821B930B9C012C5F3F4F2AF030930A
:102CD00018082093170805C00C9690931808809345
:102CE00017088091170890911808883091052CF0EA
:102CF000089790931808809317088091170890916F
:102D0000180883309105B1F01CF4029739F035C0F2
:102D100085309105D9F0069729F12FC00AE010E01F
:102D20002BED3FE049EC5FEB6BED7FE089E49EE348
:102D3000D0DB23C00AE010E02BED3FE049E45FEB7D
:102D400060EF73EB82E79EE3C4DB17C00AE010E09C
:102D50002BED3FE049E45FE360EF73EB82E79EE336
:102D6000B8DB0BC00AE010E02BED3FE049EC5FE37D
:102D70006BED7FE089E49EE3ACDB288139814A81F9
:102D80005B81688579858A859B8525D24B015C01AD
:102D90002C813D814E815F816C857D858E859F85EF
:102DA0001AD26B017C01A5019401C501B4015AD46A
:102DB0004B015C01A7019601C701B60153D49B01E9
:102DC000AC01C501B40108D2DAD46093FF07709357
:102DD0000008809301089093020800913B0B10912A
:102DE0003C0B7801F1E0EF22FF2400FD16C020E04B
:102DF00030E040E85EE3EFD120E030E040E251E433
:102E000031D420E030E040E850E42CD48ED4CAD253
:102E1000709314076093130715C020E030E040E87A
:102E20005EE3D9D120E030E040E251E41BD42EEA49
:102E30003CE441E85EE34ED278D4B4D270931407F8
:102E40006093130710932B0100932A01009113073D
:102E5000109114070115110599F0EF2849F420E0AD
:102E600030E0A90160E070E080E89EE332DB08C05A
:102E700020E030E0A9016EEA7CE481E89EE329DBF2
:102E800000911601E02FF0E0EE0FFF1FEE58FE4F0D
:102E900080818F3F09F0BDCE80912A0180FD0BC05B
:102EA00005E010E020E030E0A90160E070E080E89B
:102EB0009EE30FDB0AC007E010E020E030E0A9014C
:102EC0006EEA7CE481E89EE304DBDF91CF911F9101
:102ED0000F91FF90EF90DF90CF90BF90AF909F90B9
:102EE0008F907F906F905F904F903F902F900895BC
:102EF0002F923F924F925F926F927F928F929F920A
:102F0000AF92BF92CF92DF92EF92FF920F931F93F7
:102F1000CF93DF9300D000D0CDB7DEB7E090450B64
:102F2000F090460BE114F10409F075C000915D02C8
:102F300010915E020F5F1F4F10935E0200935D02BF
:102F40008091390B90913A0B0817190741F482E0F0
:102F50000E94380608D8EE24E394F12C24C103DB48
:102F60009093FC078093FB078130910561F482E028
:102F70000E9438060E94B30F109226016894EE2436
:102F8000E1F8F12C10C1029731F40E94B30F81E0F7
:102F90008093270108C1000F111F000F111F000FA0
:102FA000111FF801E15AFD4F248135814681578177
:102FB00060817181828193810E94460280915D02CD
:102FC00090915E02FC01EE0FFF1FEE0FFF1FE15814
:102FD000FA4F208131813093460B2093450B22819B
:102FE00020931601880F991F880F991F880F991F2A
:102FF000FC01E15AFD4F20E030E0A90164817581B8
:103000008681978160D1882321F081E08093280117
:1030100002C0109228010F2EFBE02F2EF8E03F2E69
:10302000F02DD10118968D919D910D90BC91A02D00
:1030300089839A83AB83BC8300915D0210915E0209
:10304000000F111F000F111F000F111F015A1D4FFC
:10305000F80184809580A680B78020E030E040E0D1
:103060005FE3C501B401FED22DEC3CEC4CEC5DE31A
:10307000F9D29B01AC0169817A818B819C81ACD0B2
:103080006B017C016093030870930408809305082A
:1030900090930608D8014D905D906D907C9017D16B
:1030A0009B01AC01C301B201DDD22DEC3CEC4CEC38
:1030B0005DE3D8D29B01AC01F10160817181828115
:1030C00093818AD0D1016D937D938D939C931397B7
:1030D000C701B6014AD39B01AC01C301B201C2D200
:1030E0002DEC3CEC4CEC5DE3BDD29B01AC01F1015D
:1030F00064817581868197816FD0D10114966D931B
:103100007D938D939C9317972DEC3CEC4CEC5DE3F9
:10311000C501B401A7D29B01AC0169817A818B8181
:103120009C815AD0F1016087718782879387809153
:10313000450B9091460B9C01215031093093460B71
:103140002093450B20912801211122C020912601B6
:10315000211121C020912A0120FD0DC006976AE0AF
:1031600070E088D37C01892BC9F481E0809327012A
:103170000E94B30F18C00A976EE070E07BD37C0109
:10318000892B79F481E0809327010E94B30F0BC053
:10319000E12CF12C08C0E12CF12C05C0E12CF12C24
:1031A00002C0E12CF12CC7010F900F900F900F90EF
:1031B000DF91CF911F910F91FF90EF90DF90CF9013
:1031C000BF90AF909F908F907F906F905F904F9047
:1031D0003F902F9008955058BB27AA270ED0DCC1EE
:1031E000A5D130F0AAD120F031F49F3F11F41EF4A4
:1031F0009AC10EF4E095E7FB67C1E92FEFD180F3A8
:10320000BA17620773078407950718F071F49EF5E3
:103210001EC20EF4E0950B2EBA2FA02D0B01B901A2
:1032200090010C01CA01A0011124FF27591B99F03C
:10323000593F50F4503E68F11A16F040A22F232F48
:10324000342F4427585FF3CF469537952795A79598
:10325000F0405395C9F77EF41F16BA0B620B730B3F
:10326000840BBAF09150A1F0FF0FBB1F661F771FB0
:10327000881FC2F70EC0BA0F621F731F841F48F465
:10328000879577956795B795F7959E3F08F0B3CFEB
:103290009395880F08F09927EE0F979587950895D5
:1032A000BFD180F09F3740F491110EF4D1C160E09E
:1032B00070E080E89FE3089526F01B16611D711DE4
:1032C000811D08C122C1DCD008F481E008953DD100
:1032D000E39573C10CD060C130D140F027D130F0FC
:1032E00021F45F3F19F0F0C05111B2C11CC176D179
:1032F00098F39923C9F35523B1F3951B550BBB27BD
:10330000AA2762177307840738F09F5F5F4F220F69
:10331000331F441FAA1FA9F333D00E2E3AF0E0E862
:1033200030D091505040E695001CCAF729D0FE2FAE
:1033300027D0660F771F881FBB1F26173707480740
:10334000AB07B0E809F0BB0B802DBF01FF279358F6
:103350005F4F2AF09E3F510568F0B6C079C15F3FCC
:10336000ECF3983EDCF3869577956795B795F795DE
:103370009F5FC9F7880F911D9695879597F90895D6
:10338000E1E0660F771F881FBB1F62177307840772
:10339000BA0720F0621B730B840BBA0BEE1F88F781
:1033A000E095089504D06894B11152C108951ED1DA
:1033B00088F09F5790F0B92F9927B751A0F0D1F01E
:1033C000660F771F881F991F1AF0BA95C9F712C0A8
:1033D000B13081F03CD1B1E0089539C1672F782F29
:1033E0008827B85F39F0B93FCCF386957795679514
:1033F000B395D9F73EF490958095709561957F4F80
:103400008F4F9F4F0895E89409C097FB3EF4909525
:103410008095709561957F4F8F4F9F4F9923A9F0AD
:10342000F92F96E9BB279395F6958795779567953C
:10343000B795F111F8CFFAF4BB0F11F460FF1BC080
:103440006F5F7F4F8F4F9F4F16C0882311F096E913
:1034500011C0772321F09EE8872F762F05C06623C1
:1034600071F096E8862F70E060E02AF09A95660F7A
:10347000771F881FDAF7880F9695879597F9089533
:10348000990F0008550FAA0BE0E8FEEF1616170675
:10349000E807F907C0F012161306E407F50798F0DD
:1034A000621B730B840B950B39F40A2661F0232BF6
:1034B000242B252B21F408950A2609F4A140A69572
:1034C0008FEF811D811D089597F99F6780E870E057
:1034D00060E00895882371F4772321F09850872BBA
:1034E000762F07C0662311F499270DC09051862BC3
:1034F00070E060E02AF09A95660F771F881FDAF770
:10350000880F9695879597F908959F3F31F09150D0
:1035100020F4879577956795B795880F911D9695B7
:10352000879597F908959FEF80EC089500240A94F9
:103530001616170618060906089500240A9412168E
:103540001306140605060895EECF50D0E8F3E8946C
:10355000E0E0BB279F57F0F02AED3FE049EC06C0C2
:10356000EE0FBB0F661F771F881F28F0B23A620765
:103570007307840728F0B25A620B730B840BE39530
:103580009A9572F7803830F49A95BB0F661F771FB3
:10359000881FD2F79048BBCF092E0394000C11F47A
:1035A000882352F0BB0F40F4BF2B11F460FF04C01E
:1035B0006F5F7F4F8F4F9F4F0895EF93E0FF06C0DF
:1035C000A2EA2AED3FE049EC5FEB17DEE5DF0F9062
:1035D000039401FC9058ECE9F0E016C157FD9058B7
:1035E000440F551F59F05F3F71F04795880F97FBC7
:1035F000991F61F09F3F79F0879508951216130681
:103600001406551FF2CF4695F1DF08C016161706AF
:103610001806991FF1CF86957105610508940895E4
:10362000E5DFA0F0BEE7B91788F4BB279F3860F448
:103630001616B11D672F782F8827985FF7CF8695CC
:1036400077956795B11D93959639C8F30895E894D9
:10365000BB2766277727CB0197F9089511DF08F478
:103660008FEF08950BD098CF61DF28F066DF18F058
:10367000952309F029CF57CF1124EACFAFDFA0F36C
:10368000959FD1F3950F50E0551F629FF001729FF7
:10369000BB27F00DB11D639FAA27F00DB11DAA1F16
:1036A000649F6627B00DA11D661F829F2227B00D63
:1036B000A11D621F739FB00DA11D621F839FA00DEE
:1036C000611D221F749F3327A00D611D231F849F3E
:1036D000600D211D822F762F6A2F11249F57504095
:1036E0008AF0E1F088234AF0EE0FFF1FBB1F661F30
:1036F000771F881F91505040A9F79E3F510570F0E9
:10370000E3CEA6CF5F3FECF3983EDCF3869577954A
:103710006795B795F795E7959F5FC1F7FE2B880FE3
:10372000911D9695879597F9089560DFE0F09E3793
:10373000D8F09639B8F49E3848F4672F782F882748
:10374000985FF9CF86957795679593959539D0F3DE
:10375000B62FB1706B0F711D811D20F48795779581
:1037600067959395B7CED1CE73CF9F93EEDE0F9032
:1037700007FCEE5F22CF11F40EF4D5CEC6CE36DFB5
:10378000D0F39923D9F3CEF39F57550B87FF35D04C
:103790000024A0E640EA900180585695979528F4B9
:1037A000805C660F771F881F20F0261737074807B1
:1037B00030F4621B730B840B202931294A2BA69508
:1037C00017940794202531254A2758F7660F771F4D
:1037D000881F20F026173707480730F4620B730B59
:1037E000840B200D311D411DA09581F7B901842F57
:1037F0009158880F96958795089591505040660F7F
:10380000771F881FD2F708959F938F937F936F93AD
:10381000FF93EF939B01AC0125DFEF91FF9105D062
:103820002F913F914F915F911DCFDF93CF931F93C6
:103830000F93FF92EF92DF927B018C01689405C099
:10384000DA2EEF011BDFFE01E894A5912591359159
:1038500045915591AEF3EF01D0DCFE019701A8012F
:10386000DA9479F7DF90EF90FF900F911F91CF914D
:10387000DF91089597FB072E16F4009406D077FD8C
:1038800008D014D007FC05D03EF4909581959F4F49
:103890000895709561957F4F0895EE0FFF1F0024E6
:1038A000001C0BBE0790F691E02D0994AA1BBB1BD0
:1038B00051E107C0AA1FBB1FA617B70710F0A61B30
:1038C000B70B881F991F5A95A9F780959095BC0151
:0838D000CD010895F894FFCF2B
:0E38D8000A0A02FF01010505FF01050501FFB7
:00000001FF
